:100000000C945D000C9485000C9485000C94850084
:100010000C94250E0C9485000C9485000C9485009E
:100020000C9485000C9485000C9485000C9485003C
:100030000C9485000C9485000C9485000C9485002C
:100040000C94BC0C0C9485000C948A0C0C94640CDD
:100050000C9485000C9485000C9485000C9485000C
:100060000C94060D0C94850000000000240027006D
:100070002A0000000000250028002B0004040404CE
:100080000404040402020202020203030303030342
:10009000010204081020408001020408102001021F
:1000A00004081020000000080002010000030407FB
:1000B00000000000000000002F0E11241FBECFEF33
:1000C000D8E0DEBFCDBF11E0A0E0B1E0E2ECF7E2A6
:1000D00002C005900D92AE36B107D9F723E0AEE627
:1000E000B1E001C01D92A231B207E1F710E0CDE509
:1000F000D0E004C02197FE010E94E010CC35D1076A
:10010000C9F70E94A00E0C94DF130C94000091E03C
:1001100090931302809335021092140210923602CB
:1001200008950895AF92BF92CF92DF92EF92FF921F
:100130000F931F93CF93DF936C017B018B01040F0F
:10014000151FEB015E01AE18BF08C017D10759F0AB
:100150006991D601ED91FC910190F081E02DC601ED
:100160000995892B79F7C501DF91CF911F910F91E7
:10017000FF90EF90DF90CF90BF90AF900895FC017B
:10018000538D448D252F30E0842F90E0821B930BFC
:10019000541710F0CF96089501970895FC01918DA2
:1001A000828D981761F0A28DAE0FBF2FB11D5D96A5
:1001B0008C91928D9F5F9F73928F90E008958FEF47
:1001C0009FEF0895FC01918D828D981731F0828DFB
:1001D000E80FF11D858D90E008958FEF9FEF089552
:1001E000FC01918D228D892F90E0805C9F4F821BB6
:1001F00091098F739927089588E392E00E94F00097
:1002000021E0892B09F420E0822F089580E090E01E
:10021000892B29F00E94FC0081110C9400000895A4
:10022000FC01A48DA80FB92FB11DA35ABF4F2C916B
:10023000848D90E001968F739927848FA689B78962
:100240002C93A089B1898C91837080648C93938D59
:10025000848D981306C00288F389E02D80818F7DFC
:1002600080830895EF92FF920F931F93CF93DF93B4
:10027000EC0181E0888F9B8D8C8D98131AC0E889E2
:10028000F989808185FF15C09FB7F894EE89FF89B1
:100290006083E889F98980818370806480839FBF4F
:1002A00081E090E0DF91CF911F910F91FF90EF904F
:1002B0000895F62E0B8D10E00F5F1F4F0F7311275F
:1002C000E02E8C8D8E110CC00FB607FCFACFE8899A
:1002D000F989808185FFF5CFCE010E941001F1CF11
:1002E000EB8DEC0FFD2FF11DE35AFF4FF0829FB70E
:1002F000F8940B8FEA89FB8980818062CFCFCF93FE
:10030000DF93EC01888D8823B9F0AA89BB89E8893D
:10031000F9898C9185FD03C0808186FD0DC00FB6E3
:1003200007FCF7CF8C9185FFF2CF808185FFEDCF61
:10033000CE010E941001E9CFDF91CF91089590E0A6
:10034000FC01EC55FF4F2491FC01E057FF4F349125
:10035000FC01E458FF4FE491EE23C9F0222339F069
:10036000233001F1A8F4213019F1223029F1F0E015
:10037000EE0FFF1FEE58FF4FA591B4918FB7F89481
:10038000EC91611126C030953E233C938FBF0895B8
:100390002730A9F02830C9F0243049F78091800037
:1003A0008F7D03C0809180008F7780938000DFCFA6
:1003B00084B58F7784BDDBCF84B58F7DFBCF8091F3
:1003C000B0008F778093B000D2CF8091B0008F7D46
:1003D000F9CF3E2BDACFCF93DF9390E0FC01E057CB
:1003E000FF4F249184589F4FFC0184918823D1F0C2
:1003F00090E0880F991FFC01E859FF4FA591B49137
:10040000FC01EE58FF4FC591D491623071F49FB753
:10041000F8943C91822F809583238C93E8812E2B36
:1004200028839FBFDF91CF9108958FB7F894EC9107
:100430002E2B2C938FBFF6CF3FB7F8948091B90144
:100440009091BA01A091BB01B091BC0126B5A89BC7
:1004500005C02F3F19F00196A11DB11D3FBFBA2F56
:10046000A92F982F8827BC01CD01620F711D811D16
:10047000911D42E0660F771F881F991F4A95D1F79B
:1004800008958F929F92AF92BF92CF92DF92EF9298
:10049000FF924B015C010E941C026B017C010E94D7
:1004A0001C026C197D098E099F09683E7340810505
:1004B0009105A8F321E0821A9108A108B10888EEFD
:1004C000C80E83E0D81EE11CF11C81149104A10424
:1004D000B10429F7FF90EF90DF90CF90BF90AF90DD
:1004E0009F908F9008958F929F92AF92BF92EF92BC
:1004F000FF921F93CF93DF93EC01162FE881F981D0
:100500000484F585E02D462F70E060E009957C01BC
:1005100011501230D8F419861A8688889988AA88CA
:10052000BB880E941C02688F798F8A8F9B8F8C8E6C
:100530009D8EAE8EBF8EC701DF91CF911F91FF9030
:10054000EF90BF90AF909F908F9008958C889D887A
:10055000AE88BF88E6CFDC0118968C9118974817B3
:1005600010F04FEF480F1B969C911B97992389F031
:1005700017969C911797691730F0691B4F5F4817C2
:10058000D0F340E0F8CF19966C9319971A964C93D4
:100590001A97FD01E40FF11D8485680F6068CD0195
:1005A0000C9473028F929F92AF92BF92EF92FF9240
:1005B0000F931F93CF93DF93EC01462FE881F981CE
:1005C0000484F585E02D61E070E009957C018C885C
:1005D0009D88AE88BF880E941C02688F798F8A8FA1
:1005E0009B8F8C8E9D8EAE8EBF8E01E010E0EF282B
:1005F00011F010E000E08B85882399F089858F5FEA
:1006000089879F81891768F019868A858F5F8A8715
:100610009885891708F01A864A8560E0CE010E9405
:10062000AB02C801DF91CF911F910F91FF90EF9026
:10063000BF90AF909F908F9008958DEF9FEF08959A
:100640008DEF9FEF089590E080E008952091930151
:10065000260F3327331F21323105ECF420910D0290
:10066000FC0190E080E0243069F082E00895A091E0
:1006700093012191AC014F585E4FA40FB52FB11DCE
:100680002C930196861798F380919301680F6093DD
:10069000930180E0089581E0089510920D0281E0B9
:1006A00080930C021092E70161E082E10E949F01B9
:1006B00061E083E10E949F01E9EBF0E080818E7FA1
:1006C000808380818D7F808388E48093B80085E477
:1006D0008093BC000895CF93DF9391E090937001D5
:1006E0008823B9F0C091B800D091BA008091BC00C5
:1006F0008A7B8093BC0060E082E10E949F0160E001
:1007000083E10E949F010E944D03D093BA00C093E1
:10071000B800DF91CF910895CF92DF92EF92FF92D0
:100720000F931F93CF93DF93D091360281E0D132A4
:1007300008F09CC0C09135020E941C026B017C0134
:1007400080910D0281116CC082E080930D0281E0E6
:1007500080930C028FEF80930B0210920A02D093C9
:100760000902A5E1B2E0E9EEF1E080E0D8138DC026
:100770001092E8018091E801CC0FC82BC093E801EA
:100780008091E701813009F084C01092E7010E9456
:100790001C026B017C018091E8018093BB00809179
:1007A0000F0290911002A0911102B0911202892BB8
:1007B0008A2B8B2BA1F00E941C0200910F0210913A
:1007C000100220911102309112026C197D098E09DC
:1007D0009F09061717072807390708F442C08091B8
:1007E000BC0083FDD8CF85EC8093BC000E941C0226
:1007F0006B017C0180910D02823009F44CC0809124
:100800000B028F3F09F469C080910B02803209F41A
:1008100066C080910B02803309F463C084E026C077
:1008200080910F0290911002A0911102B0911202DA
:10083000892B8A2B8B2B09F483CF0E941C020091F9
:100840000F021091100220911102309112026C19C6
:100850007D098E099F09061717072807390708F031
:100860006FCF80910E020E946B0385E010921402FC
:100870001092360210921302DF91CF911F910F91C7
:10088000FF90EF90DF90CF9008959D9191938F5FAF
:100890006DCF85EEA9CF80910F0290911002A091AB
:1008A0001102B0911202892B8A2B8B2B09F4A2CF53
:1008B0000E941C0200910F0210911002209111025F
:1008C000309112026C197D098E099F0906171707CE
:1008D0002807390708F08ECFC4CF80E0C7CF82E069
:1008E000C5CF83E0C3CF08950895E091C6018091FC
:1008F000C501E81730F4F0E0E953FE4F808190E045
:1009000008958FEF9FEF08959091C6018091C501E2
:100910002FEF3FEF981748F4E92FF0E0E953FE4F2F
:10092000208130E09F5F9093C601C90108958091B6
:10093000C5019091C601891B990B0895CF92DF9252
:10094000EF92FF920F931F93CF93DF937C01CB0124
:100950008A0120911302222389F0EB016B01C40E5E
:10096000D51ECC15DD0569F06991D701ED91FC919B
:100970000190F081E02DC7010995F3CF642F0E940B
:100980002603C801DF91CF911F910F91FF90EF9047
:10099000DF90CF900895CF93DF931F92CDB7DEB74E
:1009A0006983209113022223F9F02091360220322C
:1009B00058F021E030E0FC013383228390E080E0B6
:1009C0000F90DF91CF91089580911402E82FF0E00D
:1009D000EB5EFD4F998190838F5F8093140280932B
:1009E000360281E090E0ECCF61E0CE0101960E94FA
:1009F0002603F7CF682F85ED92E00C94CB048EBDD3
:100A000000000DB407FEFDCF8EB50895CF93CFB78C
:100A1000F89480916F01811127C0E6E8F0E084919D
:100A2000EAE9F0E09491E82FF0E0EE0FFF1FE859BB
:100A3000FF4FA591B491EC91E92321F461E08AE0A4
:100A40000E949F0161E08AE00E94EB018CB5806109
:100A50008CBD8CB580648CBD61E08DE00E94EB01A3
:100A600061E08BE00E94EB0180916F018F5F8093CA
:100A70006F01CFBFCF9108950F931F93CF93DF9353
:100A8000182FD0E0C0E28C2F0E9487000E948C03B8
:100A9000082F61E070E080E090E00E9441020111C7
:100AA00003C01D17D1F0DF5FCF5FC83261F7C8E325
:100AB0008C2F0E9487000E948C03082F61E070E059
:100AC00080E090E00E944102011103C01D1729F04F
:100AD000DF5FCF5FC03461F7C0E08C2FDF91CF9133
:100AE0001F910F910895CF93FC01C4A560FF02C030
:100AF00086A1C82B61FF02C087A1C82B62FF02C07C
:100B000080A5C82B63FF02C081A5C82B41305105C9
:100B100011F483A1C82B85A18C2B90E00E94FA04CC
:100B20006C2F85ED92E0CF910C94CB04CF93DF93A3
:100B3000EC018AA5882349F19BA5662311F1913028
:100B400011F58CA788A10E94870089A19AA102971C
:100B500021F489E090E00E94FA046CA585ED92E012
:100B60000E94CB040E948C0321E030E0811102C07E
:100B700030E020E088279927821B930BDF91CF91EB
:100B800008959923F1F21CA6DDCF8DEF9FEFF6CFEC
:100B90004F925F926F927F928F929F92AF92BF928D
:100BA000EF92FF921F93CF93DF93EC0188A18823EC
:100BB00009F459C089A19AA1892B09F454C0142FB2
:100BC0007B014C8C5D8C6E8C7F8C888C998CAA8C74
:100BD000BB8C8DE2881A9108A108B1080E941C0202
:100BE000681979098A099B096415750586059705B1
:100BF000A8F388A10E94870089A19AA1029721F4F5
:100C000089E090E00E94FA04612F70E084E075951D
:100C100067958A95E1F7A701CE010E94730582E0EE
:100C2000E816F10431F0612F6F70A701CE010E9428
:100C300073050E948C0321E030E0811102C030E096
:100C400020E088279927821B930BDF91CF911F917A
:100C5000FF90EF90BF90AF909F908F907F906F909C
:100C60005F904F9008958CEF9FEFEFCFCF92DF9280
:100C7000EF92FF920F931F93CF93DF93482F62E081
:100C800070E081EE92E00E94C8058C01C1EED2E0D6
:100C9000CC88DD88EE88FF880E941C02688F798FDF
:100CA0008A8F9B8FCC8EDD8EEE8EFF8EC801DF91FA
:100CB000CF911F910F91FF90EF90DF90CF9008950B
:100CC00008952F923F924F925F926F927F928F92F0
:100CD0009F92AF92BF92CF92DF92EF92FF920F93CB
:100CE0001F93CF93DF93CDB7DEB760970FB6F8941D
:100CF000DEBF0FBECDBFE0913702EE2309F4E8C09E
:100D0000280139017A016B015C012CB5288B0E9406
:100D100006058CB58F7D8CBD8CB5837F8CBDCE01D7
:100D200001964C01212CB4E13B2E61E08AE00E9447
:100D30009F0182E9820D0E94FF0480E00E94FF046F
:100D40008F87082F10E060E08AE00E949F018F8566
:100D50008F7092E029125AC09801F4E036952795D9
:100D6000FA95E1F7217090E0EAE02E9F800D911D49
:100D70001124A5E016950795AA95E1F70170039D4A
:100D8000800D911D11249E838D832394F2E08F0E9C
:100D9000911C27E02212C9CFA114B10419F08F8150
:100DA000F5018083C114D10419F08B85F60180838D
:100DB000E114F10419F08D85F70180836114710449
:100DC00019F08D81F30180834114510419F08B8156
:100DD000F2018083F889FCBD80E060960FB6F8943C
:100DE000DEBF0FBECDBFDF91CF911F910F91FF905E
:100DF000EF90DF90CF90BF90AF909F908F907F90BB
:100E00006F905F904F903F902F900895F3E02F12D6
:100E10001AC0980174E0369527957A95E1F721700C
:100E200090E03AE0239F800D911D1124E5E0169596
:100E30000795EA95E1F70170039D800D911D11243E
:100E400098878F83A2CF44E0241609F49ECF98019F
:100E500064E0369527956A95E1F7217090E0EAE025
:100E60002E9F800D911D1124F5E02F1203C09C8749
:100E70008B878BCF980145E0369527954A95E1F70A
:100E80002170239D800D911D1124980156E0369507
:100E900027955A95E1F7217038E2239F800D911D27
:100EA000112446E0241210C0000F012F001F110B67
:100EB0001195E0E5E09F9001E19F300D1124820F34
:100EC000931F9E878D8761CFF401918380835DCFCF
:100ED0008FEF83CF0F931F93CF93DF931F92CDB7E5
:100EE000DEB710E000E030E020E0AE014F5F5F4F82
:100EF00070E060E090E080E00E94610687FD07C03E
:100F000089810F90DF91CF911F910F9108958FEFFD
:100F1000F8CFCF92DF92EF92FF920F931F93CF9370
:100F2000C82F0E941C026B017C0180910D0281116F
:100F300064C081E080930D0280930C029FEF909338
:100F40000B0210920A02109209028093E80180912C
:100F5000E801CC0FC82BC093E8018091E7018130F4
:100F600009F07DC01092E7010E941C026B017C0118
:100F70008091E8018093BB0080910F029091100254
:100F8000A0911102B0911202892B8A2B8B2BA1F018
:100F90000E941C0200910F02109110022091110278
:100FA000309112026C197D098E099F0906171707E7
:100FB0002807390708F442C08091BC0083FDD8CFD0
:100FC00085EC8093BC000E941C026B017C01809127
:100FD0000D02813009F445C080910A02811163C07D
:100FE00080910A02E9EEF1E0A7ECB1E090E09817F9
:100FF00051F121912D939F5FFACF80910F02909133
:101000001002A0911102B0911202892B8A2B8B2B16
:1010100009F48BCF0E941C0200910F021091100264
:1010200020911102309112026C197D098E099F09DD
:10103000061717072807390708F077CF80910E02A7
:101040000E946B0380E01092C6018093C501CF918E
:101050001F910F91FF90EF90DF90CF90089585EE54
:10106000B0CF80910F0290911002A0911102B09127
:101070001202892B8A2B8B2B09F4A9CF0E941C0208
:1010800000910F0210911002209111023091120272
:101090006C197D098E099F0906171707280739075C
:1010A00008F095CFCBCF81E09DCF4F925F926F92AA
:1010B0007F928F929F92AF92BF92EF92FF920F9387
:1010C0001F93CF93DF93EC011CA588A1882309F41B
:1010D000E1C089A19AA1009709F4DCC0029709F444
:1010E000DCC08CA1882309F4D8C07B014C8C5D8CBA
:1010F0006E8C7F8C888C998CAA8CBB8C8DE2881A24
:101100009108A108B1080E941C02681979098A098E
:101110009B096415750586059705A8F38EA1182B04
:101120008FA1182B88A5182B89A5182BEA94EF28D6
:1011300011F48BA1182B8CA1182B88A10E94870079
:10114000612F85ED92E00E94CB040E948C038823DE
:1011500001F10FEF1FEF88A10E9487006CA585EDBC
:1011600092E00E94CB040E948C03882311F00FEFC1
:101170001FEFC801DF91CF911F910F91FF90EF906A
:10118000BF90AF909F908F907F906F905F904F90A7
:10119000089588A10E9487008DA1812B90E00E9474
:1011A000FA040E948C038111D4CF88A190E00E94A0
:1011B000890785ED92E00E9484047C0197FDC9CFE8
:1011C00088A10E948700612F85ED92E00E94CB04E8
:1011D0000E948C03082F8111BCCF8EA190E08E213C
:1011E0009F21892B09F000E18FA190E08E219F21A2
:1011F000892B09F0006288A590E08E219F21892B20
:1012000009F0006489A590E08E219F21892B09F0C7
:10121000006888A10E9487008DA1812B90E00E9428
:10122000FA040E948C03811194CF88A190E00E945F
:10123000890785ED92E00E9484047C0197FD89CFA7
:1012400088A10E948700612F85ED92E00E94CB0467
:101250000E948C0381117DCF8EA190E08E219F2171
:10126000892B09F001608FA190E08E219F21892BAD
:1012700009F0026088A590E08E219F21892B09F05A
:10128000046089A590E08E219F21892B09F00860D8
:1012900010E061CF0CEF1FEF6CCF0DEF1FEF69CFA8
:1012A0000F931F93CF93DF93EC011092C60110921E
:1012B000C50110921402109236020E944D0383E77A
:1012C00094E0909392018093910184E794E090934D
:1012D00096018093950188A181117EC080916E0155
:1012E00091E0980F90936E010E943C0588A388A11D
:1012F000811109C080916E0191E0980F90936E0169
:101300000E943C0588A318A1112309F46CC089A18F
:101310009AA1892B09F021C1812F0E94870060E0EA
:1013200085ED92E00E94CB046FEF85ED92E00E9484
:10133000CB040E948C03812F0E94870060E085ED22
:1013400092E00E94CB040E948C03812F90E00E94C7
:10135000890785ED92E00E9484048F3F910509F092
:1013600049C082E090E09AA389A388A10E948700E7
:1013700060E085ED92E00E94CB048FEF90E00E9448
:10138000FA040E948C0388A10E94870086E090E006
:101390000E94FA048FE790E00E94FA040E948C03F6
:1013A00088A10E94870089E090E00E94FA040E94D0
:1013B0008C0388A190E00E94890785ED92E00E944D
:1013C00084048F3709F002C127E036E045E054E09D
:1013D00063E072E0E1E005C10E9487000E948C0397
:1013E000882309F484CF8CEF9FEFDF91CF911F9179
:1013F0000F910895892B29F01AA219A28FEF9FEF60
:10140000F4CF81E090E09AA389A388A10E9487008D
:101410006FEF85ED92E00E94CB040E948C0388A1BF
:1014200090E00E94890785ED92E00E9484048C017F
:1014300088A10E9487006BEF85ED92E00E94CB04AB
:101440000E948C0388A190E00E94890785ED92E0BC
:101450000E9484049801277033272730310509F052
:101460004DC0807F9927803F910509F047C083E0F8
:10147000169507958A95E1F761E00627017043E02C
:1014800057E066E075E0E4E022E0F1E030E081E082
:1014900090E0DC0101C0AA0F3A95EAF7ABA3DC01AA
:1014A00001C0AA0FFA95EAF7ACA3DC0102C0AA0FAB
:1014B000BB1F2A95E2F7ADA39C0101C0220FEA955C
:1014C000EAF72EA39C0101C0220F7A95EAF72FA319
:1014D0009C0101C0220F6A95EAF728A79C0101C070
:1014E000220F5A95EAF729A701C0880F4A95EAF713
:1014F0008AA70BA7013081F58CA72FC0C801807780
:1015000099278037910519F08DEF9FEF6ECF88A155
:101510000E9487006FEE85ED92E00E94CB040E944E
:101520008C0388A190E00E94890785ED92E00E94DB
:1015300084048F70992726E034E00F9711F424E09B
:1015400036E00095001F0027001F47E053E062E0EF
:1015500071E0E0E0F5E09BCF1CA688A10E94870027
:1015600089A19AA1029701F585E090E00E94FA0412
:1015700080E290E00E94FA040E948C0388A10E94FD
:10158000870060E085ED92E00E94CB0460E085ED8D
:1015900092E00E94CB040E948C0388A10E948700E5
:1015A00089E090E00E94FA0460E085ED92E00E94FC
:1015B000CB040E948C0321E030E0811102C030E0B6
:1015C00020E088279927821B930B0FCF86FF3BC013
:1015D00081FD9ACF21E032E043E054E065E076E01F
:1015E000E7E081E090E0DC0102C0AA0FBB1FEA95B2
:1015F000E2F7ABA31CA2FC0101C0EE0F7A95EAF75B
:10160000EDA3FC0102C0EE0FFF1F6A95E2F7EEA307
:10161000BC0101C0660F5A95EAF76FA3BC0102C076
:10162000660F771F4A95E2F768A7AC0101C0440F27
:101630003A95EAF749A701C0880F2A95EAF78AA7E1
:1016400091E09BA759CF26E033E042E051E060E013
:1016500077E0E4E0C6CF0E94F510FB010190002086
:10166000E9F73197AF01461B570BDC01ED91FC9177
:101670000280F381E02D099485ED8093BC00809178
:101680000F0290911002A0911102B09112020796E0
:10169000A11DB11D23E0B695A795979587952A952D
:1016A000D1F72091BC0024FD03C010920D020895D3
:1016B00040910F025091100260911102709112023C
:1016C000452B462B472B69F30097A105B10541F047
:1016D0002AE22A95F1F700C00197A109B109E1CFEB
:1016E00080910E020C946B03CF92DF92EF92FF92E7
:1016F0000F931F93CF93DF93CDB7DEB72A970FB623
:10170000F894DEBF0FBECDBFCE0101966C0189E01B
:10171000F60111928A95E9F78E01065F1F4F30E0BE
:1017200020E050E040E070E060E090E080E00E9467
:10173000610687FD46C08A85E82E880FFF0810E005
:1017400000E09E01265F3F4F50E040E070E060E027
:1017500090E080E00E94610687FD35C08A85FF9297
:10176000EF92282F082E000C330B3F938F9380E0CD
:1017700091E09F938F931F9286E08F93DF92CF9299
:101780000E94FA1040E06BE081EE92E00E94AB0212
:10179000B60181EE92E00E942D0B0FB6F894DEBFE9
:1017A0000FBECDBF2A960FB6F894DEBF0FBECDBFD9
:1017B000DF91CF911F910F91FF90EF90DF90CF902D
:1017C00008958FEFB9CF8FEFCACFAF92BF92CF926C
:1017D000DF92EF92FF920F931F93CF93DF93CDB7DA
:1017E000DEB72A970FB6F894DEBF0FBECDBFCE018D
:1017F00001965C0189E0F50111928A95E9F70E9452
:101800006A07E82E880FFF08F0E3EF1AF8EFFF0AE7
:1018100010E000E030E020E050E040E0BE01665F14
:101820007F4F90E080E00E94610687FD49C08A8575
:10183000C82E880FDD0810E000E030E020E050E026
:1018400040E070E060E0CE010A960E94610687FDEC
:1018500039C08A85FF92EF92DF92CF92282F082E0F
:10186000000C330B3F938F938BE091E09F938F930A
:101870001F9289E08F93BF92AF920E94FA1040E0CE
:1018800060E081EE92E00E94AB02B50181EE92E051
:101890000E942D0B0FB6F894DEBF0FBECDBF2A9667
:1018A0000FB6F894DEBF0FBECDBFDF91CF911F9171
:1018B0000F91FF90EF90DF90CF90BF90AF90089581
:1018C0008FEFB6CF8FEFC6CF1F920F920FB60F924A
:1018D00011242F933F934F935F936F937F938F9335
:1018E0009F93AF93BF93EF93FF9388E392E00E949F
:1018F0001001FF91EF91BF91AF919F918F917F91D7
:101900006F915F914F913F912F910F900FBE0F906C
:101910001F9018951F920F920FB60F9211242F93BC
:101920008F939F93EF93FF93E0914802F0914902C8
:101930008081E0914E02F0914F0282FD1BC09081A8
:10194000809151028F5F8F7320915202821741F074
:10195000E0915102F0E0E85CFD4F958F80935102D9
:10196000FF91EF919F918F912F910F900FBE0F904C
:101970001F9018958081F4CF1F920F920FB60F928F
:1019800011242F933F938F939F93AF93BF93809195
:10199000BD019091BE01A091BF01B091C0013091F5
:1019A000B80123E0230F2D3758F50196A11DB11D75
:1019B0002093B8018093BD019093BE01A093BF0115
:1019C000B093C0018091B9019091BA01A091BB017F
:1019D000B091BC010196A11DB11D8093B9019093F6
:1019E000BA01A093BB01B093BC01BF91AF919F918D
:1019F0008F913F912F910F900FBE0F901F901895D0
:101A000026E8230F0296A11DB11DD2CF1F920F927F
:101A10000FB60F9211242F933F934F935F936F93C1
:101A20007F938F939F93AF93BF93EF93FF93809197
:101A3000B900887F803609F44AC0F0F5883209F48D
:101A4000A7C018F5803109F49BC0B8F4882309F4C5
:101A5000F9C0883009F494C0FF91EF91BF91AF9124
:101A60009F918F917F916F915F914F913F912F91B6
:101A70000F900FBE0F901F901895883109F488C001
:101A8000803251F780930B0214C0803409F49DC05A
:101A900040F48033B9F38833F9F680930B0285EC78
:101AA000B0C0803509F485C0883509F496C0883403
:101AB00099F60E943C0BD0CF883909F48CC038F5D8
:101AC000883729F050F4883611F0803729F683E002
:101AD00080930D021092B70157C0883809F47BC07B
:101AE000803919F0803809F0B7CF8091B701803282
:101AF00008F071C0E091B70181E08E0F8093B701CB
:101B00008091BB00F0E0E956FE4F80833DC0803BF2
:101B100039F0E0F4803A09F479C0883A09F09CCFB2
:101B200084E080930D021092940110929301E09151
:101B30009101F091920109958091930181110FC05B
:101B400081E0809393011092710109C0803C09F4F7
:101B5000A6CF883C09F4A3CF883B09F07DCFE09164
:101B6000940181E08E0F80939401F0E0EF58FE4FD6
:101B700080818093BB00909194018091930129C052
:101B80008091E8018093BB0085EC8093BC0064CF1A
:101B900090910A0280910902981758F5E0910A0283
:101BA00081E08E0F80930A02F0E0E751FE4F8081C2
:101BB000E9CFE0910A0281E08E0F80930A028091C2
:101BC000BB00F0E0E751FE4F808390910A028091C4
:101BD00009029817C8F285E8D8CFE0910A0281E09F
:101BE0008E0F80930A028091BB00F0E0E751FE4F18
:101BF000808380910C0281115CCF81E08093E701AA
:101C000084EA8093BC0010920D0226CF85EC80936D
:101C1000BC0010920D028091B701803230F4E09147
:101C2000B701F0E0E956FE4F10826091B70170E015
:101C3000E0919501F091960187E991E00995109264
:101C4000B7010ACF10920B0234CF1F920F920FB63A
:101C50000F9211240F900FBE0F901F901895CF93E5
:101C6000DF93E8E3F2E01382128288EE93E0A0E0D3
:101C7000B0E084839583A683B7832FE131E031837D
:101C8000208325EC30E03587248724EC30E037874B
:101C9000268720EC30E0318B208B21EC30E0338B39
:101CA000228B22EC30E0358B248B26EC30E0378B16
:101CB000268B118E128E138E148EE5EDF2E01382B8
:101CC000128284839583A683B78381E391E0918315
:101CD0008083C1EED2E01B821A8283E491E0998373
:101CE00088831F82188680ED97E0A0E0B0E0888BA3
:101CF000998BAA8BBB8B86E290E0A0E0B0E08C8B46
:101D00009D8BAE8BBF8B1C861D861E861F861B86F9
:101D10000E941C02688F798F8A8F9B8F1C8E1D8E6C
:101D20001E8E1F8E89E591E09983888318A21AA2DE
:101D300019A282E08DA780E18EA7DF91CF9108954F
:101D4000CF93DF93CDB7DEB7A1970FB6F894DEBF80
:101D50000FBECDBF789484B5826084BD84B58160A8
:101D600084BD85B5826085BD85B5816085BD809166
:101D70006E00816080936E001092810080918100DE
:101D800082608093810080918100816080938100D6
:101D9000809180008160809380008091B100846098
:101DA0008093B1008091B00081608093B0008091F9
:101DB0007A00846080937A0080917A0082608093B8
:101DC0007A0080917A00816080937A0080917A0015
:101DD000806880937A001092C100E0914802F091EF
:101DE000490282E08083E0914402F0914502108232
:101DF000E0914602F091470280E180831092500208
:101E0000E0914C02F0914D0286E08083E0914A021D
:101E1000F0914B02808180618083E0914A02F091D1
:101E20004B02808188608083E0914A02F0914B02EE
:101E3000808180688083E0914A02F0914B0280812A
:101E40008F7D808380910F0390910E03953008F071
:101E500094E02091ED0221110CC02091EE0221119D
:101E600008C02091EF02211104C02091F00222232A
:101E700031F02091E802222361F0821751F0109294
:101E8000ED0220E42093EE028093EF02280F2093CE
:101E9000F0029093E9028093E80264E670E080E04B
:101EA00090E00E9441021092E50281EE92E00E94D1
:101EB0005009892B09F04CC08091E902823028F04A
:101EC0008091E50288608093E50280E30E943606F7
:101ED00065E070E080E090E00E94410280E30E94B3
:101EE000360661E070E080E090E00E94410280E30D
:101EF0000E94360661E070E080E090E00E944102BE
:101F00008091E50284FD03C080E20E943606609164
:101F1000E502606281EE92E00E94730284E08093A9
:101F2000E6026CE081EE92E00E94730261E081EED5
:101F300092E00E94730282E08093E70266E081EE05
:101F400092E00E9473026FEF81EE92E00E9496058C
:101F500061E081EE92E00E94730262E081EE92E025
:101F60000E9473020E9406051CB561E08AE00E948F
:101F7000EB0160E08AE00E949F010E9406058CB59B
:101F80008F7D8CBD8CB5837F8CBD61E08AE00E9423
:101F90009F0180E10E94FF0488E50E94FF0460E049
:101FA0008AE00E949F011CBD81E0809337026EE0B1
:101FB00080E00E94EB016FE080E00E94EB0162E0B4
:101FC00080E00E94EB01809168008260809368004D
:101FD00080916C00836080936C0078940E94E50B84
:101FE0000E94740B0E946A07282F880F330B225E11
:101FF0003F4FD12CC12CF0E0E0E004E610E040E9D6
:10200000A42EBB24B394C216D306D8F476018EE472
:10201000E81A88EFF80AC70183709927892B61F0C5
:10202000C701B8010E949F10892B31F0C701B5018B
:102030000E949F10892B09F431968FEFC81AD80A95
:10204000E2CFD901AE1BBF0B20E833E341EE51E0F4
:102050000E94D5106B017C01DF0120E035E842EEE3
:1020600051E00E94D510A7019601260F371F481F87
:10207000591F19A27E01E1E2EE0EF11C9AE0892EB1
:10208000912CA12CB12CCA01B901A50194010E9487
:10209000B310605DF70162937F01211531054105A1
:1020A000510589F7309729F0BF0188E392E00E943B
:1020B0002D0B6BE671E088E392E00E942D0B88EE19
:1020C000882E83E0982EA12CB12C00E010E08FB771
:1020D000F894C090BD01D090BE01E090BF01F09097
:1020E000C0018FBFC701B601A50194010E94B310C2
:1020F000672B682B692BC9F48091C1019091C201B3
:10210000A091C301B091C4018C159D05AE05BF051A
:1021100061F0C092C101D092C201E092C301F0927D
:10212000C4010E94E50B0E94740B0115110579F2A0
:102130000E94FC00882359F20E940000C8CFAA1B0D
:10214000BB1B51E107C0AA1FBB1FA617B70710F0A2
:10215000A61BB70B881F991F5A95A9F780959095D4
:10216000BC01CD010895A1E21A2EAA1BBB1BFD01E3
:102170000DC0AA1FBB1FEE1FFF1FA217B307E40766
:10218000F50720F0A21BB30BE40BF50B661F771FBE
:10219000881F991F1A9469F760957095809590959E
:1021A0009B01AC01BD01CF0108950E94E610A59FDF
:1021B000900DB49F900DA49F800D911D1124089542
:1021C000EE0FFF1F0590F491E02D0994A29FB0013E
:1021D000B39FC001A39F700D811D1124911DB29F5B
:1021E000700D811D1124911D089581E090E0F894F7
:1021F0000C94DF13AEE0B0E0E0E0F1E10C94B61334
:102200000D891E898F89988D26E02C831A83098376
:1022100097FF02C080E090E801979E838D83AE0116
:10222000455E5F4F698D7A8DCE0101960E942A111D
:102230004D815E8157FD0AC02F81388542175307B3
:102240000CF49A01020F131FF80110822E96E4E09D
:102250000C94D213ABE0B0E0E0E3F1E10C94A813EE
:102260007C013B018A01FC0117821682838181FF78
:10227000C8C1CE0101965C01F7019381F30193FD82
:10228000859193FF81913F01882309F453C18532E1
:1022900039F493FD859193FF81913F01853229F4B3
:1022A000B70190E00E941A13E7CF912C212C312C1A
:1022B000FFE1F31538F08B3211F190F4803209F11F
:1022C000833229F137FC3CC020ED280F2A3050F52D
:1022D00036FE20C08AE0989E200D1124922E06C062
:1022E0008D3291F0803371F7689430F8F30193FDEB
:1022F000859193FF81913F018111DACF21C06894CC
:1023000031F8689432F8F2CF689433F8EFCF6894DC
:1023100034F8ECCFEAE02E9E200D1124222E689492
:1023200035F8E4CF8E3229F436FC04C1689436F8CF
:10233000DDCF8C3619F4689437F8D8CF8836B1F2EF
:10234000982F9F7D95549330E0F08336A1F1833729
:10235000C1F1833509F063C02801F2E04F0E511C32
:10236000F801C080D180692D70E036FC02C06FEFAB
:102370007FEFC6010E9404134C01689437F8820174
:102380000AC00C5F1F4FFFE3F98388248394912CCC
:102390006501E89437F833FE2DC0522C8114910466
:1023A00071F5552009F468CFB70180E290E00E94F2
:1023B0001A135A94F6CFF801808189830E5F1F4F5C
:1023C000E4CF2801F2E04F0E511CF801C080D1800B
:1023D000692D70E036FC02C06FEF7FEFC6010E94EE
:1023E0000F134C018201D5CFB70180E290E00E942B
:1023F0001A132A942814190409F0B0F7CECFF60165
:1024000037FC859137FE81916F01B70190E00E9402
:102410001A1351105A94F1E08F1A9108BFCF8436E5
:1024200019F0893609F077C0F80137FE6BC060817A
:102430007181828193810C5F1F4FF32DFF763F2EB8
:1024400097FF09C090958095709561957F4F8F4F4C
:102450009F4F689437F82AE030E0A5010E944A13A4
:10246000C82ECA188C2C432C36FE0CC0E89440F8B9
:10247000C91440F434FE05C032FC03C0F32DFE7EC7
:102480004F2E892C44FE95C0FE01EC0DF11D80817C
:10249000803309F087C0242D297E422E842D887038
:1024A000582E43FC95C040FE8FC09C2C821418F41B
:1024B0002C0C922C981844FE91C0B70180E390E058
:1024C0000E941A1342FE09C088E790E041FE02C054
:1024D00088E590E0B7010E941A13C91408F48AC075
:1024E000CA94D12C9FEFC91AD90ACA0CDB1CF60179
:1024F00082916F01B70190E00E941A13AC14BD04E1
:10250000B1F74FCF60817181072E000C880B990BBA
:102510000E5F1F4F92CFD32CE894D4F82AE030E01E
:10252000853739F1232D297FD22E8F3601F148F4DA
:102530008835A9F0F701868197812B96E2E10C940A
:10254000C413803749F08837A9F7D4FE02C06894D5
:10255000D2F820E130E00DC06894D4F8F6CF34FE14
:1025600003C0822F8660D82E20E132E002C028E02E
:1025700030E0F801D7FE0FC06081718182819381C4
:102580000C5F1F4FA5010E944A13C82ECA183D2C8C
:10259000E89437F867CF6081718190E080E00E5F4A
:1025A0001F4FF0CF42FC02C0839478CF8394839472
:1025B00075CF842D867809F471CFF6CFB70180E20C
:1025C00090E00E941A1383948214C0F3512C73CFAD
:1025D000522C5818821408F46ECFF8CF842D8678C8
:1025E00009F47BCF8BE241FE80E247FC8DE2B7012C
:1025F00090E071CFB70180E390E00E941A139A94A3
:102600006CCF8FEF9FEF99CFFC0105906150704028
:102610000110D8F7809590958E0F9F1F0895FC01AB
:102620006150704001900110D8F7809590958E0F01
:102630009F1F08950F931F93CF93DF93182F092F98
:10264000EB018B8181FD09C01FEF0FEF812F902FD0
:10265000DF91CF911F910F91089582FF14C02E81B9
:102660003F818C819D81281739073CF4E881F981ED
:10267000CF0101969983888310838E819F81019673
:102680009F838E83E3CFE885F985812F0995892B78
:10269000A1F3DACFFA01AA27283051F1203181F1D4
:1026A000E8946F936E7F6E5F7F4F8F4F9F4FAF4F5A
:1026B000B1E03ED0B4E03CD0670F781F891F9A1F6D
:1026C000A11D680F791F8A1F911DA11D6A0F711D21
:1026D000811D911DA11D20D009F468943F912AE02D
:1026E000269F11243019305D3193DEF6CF01089515
:1026F000462F4770405D4193B3E00FD0C9F7F6CF46
:10270000462F4F70405D4A3318F0495D31FD40520D
:10271000419302D0A9F7EACFB4E0A69597958795A3
:1027200077956795BA95C9F7009761057105089582
:102730009B01AC010A2E069457954795379527952E
:10274000BA95C9F7620F731F841F951FA01D0895C6
:102750002F923F924F925F926F927F928F929F92B1
:10276000AF92BF92CF92DF92EF92FF920F931F939F
:10277000CF93DF93CDB7DEB7CA1BDB0B0FB6F89450
:10278000DEBF0FBECDBF09942A88398848885F8490
:102790006E847D848C849B84AA84B984C884DF8001
:1027A000EE80FD800C811B81AA81B981CE0FD11DE5
:1027B0000FB6F894DEBF0FBECDBFED010895F894BB
:0227C000FFCF49
:1027C200253032643A253032640000253032642FDD
:1027D200253032642F2530326400000000000032C0
:1027E200019200BF007F01F000CE00E20000000075
:1027F20000CB049E04230391009704840475040013
:10280200000000D202920023036006230320032B60
:102812000B1D031D0300000000D20292002303607F
:0E2822000650095508C80596051D030D0A004D
:00000001FF
